{
  "contractName": "Certification",
  "abi": [
    {
      "anonymous": false,
      "inputs": [
        {
          "indexed": false,
          "internalType": "string",
          "name": "certificate_id",
          "type": "string"
        }
      ],
      "name": "certificateGenerated",
      "type": "event"
    },
    {
      "inputs": [
        {
          "internalType": "string",
          "name": "",
          "type": "string"
        }
      ],
      "name": "certificates",
      "outputs": [
        {
          "internalType": "string",
          "name": "uid",
          "type": "string"
        },
        {
          "internalType": "string",
          "name": "candidate_name",
          "type": "string"
        },
        {
          "internalType": "string",
          "name": "course_name",
          "type": "string"
        },
        {
          "internalType": "string",
          "name": "org_name",
          "type": "string"
        },
        {
          "internalType": "string",
          "name": "ipfs_hash",
          "type": "string"
        }
      ],
      "stateMutability": "view",
      "type": "function",
      "constant": true
    },
    {
      "inputs": [
        {
          "internalType": "string",
          "name": "_certificate_id",
          "type": "string"
        },
        {
          "internalType": "string",
          "name": "_uid",
          "type": "string"
        },
        {
          "internalType": "string",
          "name": "_candidate_name",
          "type": "string"
        },
        {
          "internalType": "string",
          "name": "_course_name",
          "type": "string"
        },
        {
          "internalType": "string",
          "name": "_org_name",
          "type": "string"
        },
        {
          "internalType": "string",
          "name": "_ipfs_hash",
          "type": "string"
        }
      ],
      "name": "generateCertificate",
      "outputs": [],
      "stateMutability": "nonpayable",
      "type": "function"
    },
    {
      "inputs": [
        {
          "internalType": "string",
          "name": "_certificate_id",
          "type": "string"
        }
      ],
      "name": "getCertificate",
      "outputs": [
        {
          "internalType": "string",
          "name": "_uid",
          "type": "string"
        },
        {
          "internalType": "string",
          "name": "_candidate_name",
          "type": "string"
        },
        {
          "internalType": "string",
          "name": "_course_name",
          "type": "string"
        },
        {
          "internalType": "string",
          "name": "_org_name",
          "type": "string"
        },
        {
          "internalType": "string",
          "name": "_ipfs_hash",
          "type": "string"
        }
      ],
      "stateMutability": "view",
      "type": "function",
      "constant": true
    },
    {
      "inputs": [
        {
          "internalType": "string",
          "name": "_certificate_id",
          "type": "string"
        }
      ],
      "name": "isVerified",
      "outputs": [
        {
          "internalType": "bool",
          "name": "",
          "type": "bool"
        }
      ],
      "stateMutability": "view",
      "type": "function",
      "constant": true
    }
  ],
  "bytecode": "0x608060405234801561001057600080fd5b50611048806100206000396000f3fe608060405234801561001057600080fd5b506004361061004c5760003560e01c8063234c76d514610051578063627956ae146100815780638f2b91ea1461009d578063ed0f2e75146100d1575b600080fd5b61006b60048036038101906100669190610b67565b610105565b6040516100789190610bcb565b60405180910390f35b61009b60048036038101906100969190610be6565b61013f565b005b6100b760048036038101906100b29190610b67565b6102cc565b6040516100c8959493929190610da3565b60405180910390f35b6100eb60048036038101906100e69190610b67565b6105c0565b6040516100fc959493929190610da3565b60405180910390f35b6000806000836040516101189190610e55565b9081526020016040518091039020600401805461013490610e9b565b905014159050919050565b600080876040516101509190610e55565b9081526020016040518091039020600401805461016c90610e9b565b9050146101ae576040517f08c379a00000000000000000000000000000000000000000000000000000000081526004016101a590610f3e565b60405180910390fd5b60006040518060a00160405280878152602001868152602001858152602001848152602001838152509050806000886040516101ea9190610e55565b9081526020016040518091039020600082015181600001908051906020019061021492919061096a565b50602082015181600101908051906020019061023192919061096a565b50604082015181600201908051906020019061024e92919061096a565b50606082015181600301908051906020019061026b92919061096a565b50608082015181600401908051906020019061028892919061096a565b509050507f267fae70dc2912ede5096795f49d41fac472461a02e4f8703eceee0e785bbd1d876040516102bb9190610f5e565b60405180910390a150505050505050565b60008180516020810182018051848252602083016020850120818352809550505050505060009150905080600001805461030590610e9b565b80601f016020809104026020016040519081016040528092919081815260200182805461033190610e9b565b801561037e5780601f106103535761010080835404028352916020019161037e565b820191906000526020600020905b81548152906001019060200180831161036157829003601f168201915b50505050509080600101805461039390610e9b565b80601f01602080910402602001604051908101604052809291908181526020018280546103bf90610e9b565b801561040c5780601f106103e15761010080835404028352916020019161040c565b820191906000526020600020905b8154815290600101906020018083116103ef57829003601f168201915b50505050509080600201805461042190610e9b565b80601f016020809104026020016040519081016040528092919081815260200182805461044d90610e9b565b801561049a5780601f1061046f5761010080835404028352916020019161049a565b820191906000526020600020905b81548152906001019060200180831161047d57829003601f168201915b5050505050908060030180546104af90610e9b565b80601f01602080910402602001604051908101604052809291908181526020018280546104db90610e9b565b80156105285780601f106104fd57610100808354040283529160200191610528565b820191906000526020600020905b81548152906001019060200180831161050b57829003601f168201915b50505050509080600401805461053d90610e9b565b80601f016020809104026020016040519081016040528092919081815260200182805461056990610e9b565b80156105b65780601f1061058b576101008083540402835291602001916105b6565b820191906000526020600020905b81548152906001019060200180831161059957829003601f168201915b5050505050905085565b6060806060806060600080876040516105d99190610e55565b90815260200160405180910390206040518060a001604052908160008201805461060290610e9b565b80601f016020809104026020016040519081016040528092919081815260200182805461062e90610e9b565b801561067b5780601f106106505761010080835404028352916020019161067b565b820191906000526020600020905b81548152906001019060200180831161065e57829003601f168201915b5050505050815260200160018201805461069490610e9b565b80601f01602080910402602001604051908101604052809291908181526020018280546106c090610e9b565b801561070d5780601f106106e25761010080835404028352916020019161070d565b820191906000526020600020905b8154815290600101906020018083116106f057829003601f168201915b5050505050815260200160028201805461072690610e9b565b80601f016020809104026020016040519081016040528092919081815260200182805461075290610e9b565b801561079f5780601f106107745761010080835404028352916020019161079f565b820191906000526020600020905b81548152906001019060200180831161078257829003601f168201915b505050505081526020016003820180546107b890610e9b565b80601f01602080910402602001604051908101604052809291908181526020018280546107e490610e9b565b80156108315780601f1061080657610100808354040283529160200191610831565b820191906000526020600020905b81548152906001019060200180831161081457829003601f168201915b5050505050815260200160048201805461084a90610e9b565b80601f016020809104026020016040519081016040528092919081815260200182805461087690610e9b565b80156108c35780601f10610898576101008083540402835291602001916108c3565b820191906000526020600020905b8154815290600101906020018083116108a657829003601f168201915b5050505050815250509050600080886040516108df9190610e55565b908152602001604051809103902060040180546108fb90610e9b565b90500361093d576040517f08c379a000000000000000000000000000000000000000000000000000000000815260040161093490610ff2565b60405180910390fd5b80600001518160200151826040015183606001518460800151955095509550955095505091939590929450565b82805461097690610e9b565b90600052602060002090601f01602090048101928261099857600085556109df565b82601f106109b157805160ff19168380011785556109df565b828001600101855582156109df579182015b828111156109de5782518255916020019190600101906109c3565b5b5090506109ec91906109f0565b5090565b5b80821115610a095760008160009055506001016109f1565b5090565b6000604051905090565b600080fd5b600080fd5b600080fd5b600080fd5b6000601f19601f8301169050919050565b7f4e487b7100000000000000000000000000000000000000000000000000000000600052604160045260246000fd5b610a7482610a2b565b810181811067ffffffffffffffff82111715610a9357610a92610a3c565b5b80604052505050565b6000610aa6610a0d565b9050610ab28282610a6b565b919050565b600067ffffffffffffffff821115610ad257610ad1610a3c565b5b610adb82610a2b565b9050602081019050919050565b82818337600083830152505050565b6000610b0a610b0584610ab7565b610a9c565b905082815260208101848484011115610b2657610b25610a26565b5b610b31848285610ae8565b509392505050565b600082601f830112610b4e57610b4d610a21565b5b8135610b5e848260208601610af7565b91505092915050565b600060208284031215610b7d57610b7c610a17565b5b600082013567ffffffffffffffff811115610b9b57610b9a610a1c565b5b610ba784828501610b39565b91505092915050565b60008115159050919050565b610bc581610bb0565b82525050565b6000602082019050610be06000830184610bbc565b92915050565b60008060008060008060c08789031215610c0357610c02610a17565b5b600087013567ffffffffffffffff811115610c2157610c20610a1c565b5b610c2d89828a01610b39565b965050602087013567ffffffffffffffff811115610c4e57610c4d610a1c565b5b610c5a89828a01610b39565b955050604087013567ffffffffffffffff811115610c7b57610c7a610a1c565b5b610c8789828a01610b39565b945050606087013567ffffffffffffffff811115610ca857610ca7610a1c565b5b610cb489828a01610b39565b935050608087013567ffffffffffffffff811115610cd557610cd4610a1c565b5b610ce189828a01610b39565b92505060a087013567ffffffffffffffff811115610d0257610d01610a1c565b5b610d0e89828a01610b39565b9150509295509295509295565b600081519050919050565b600082825260208201905092915050565b60005b83811015610d55578082015181840152602081019050610d3a565b83811115610d64576000848401525b50505050565b6000610d7582610d1b565b610d7f8185610d26565b9350610d8f818560208601610d37565b610d9881610a2b565b840191505092915050565b600060a0820190508181036000830152610dbd8188610d6a565b90508181036020830152610dd18187610d6a565b90508181036040830152610de58186610d6a565b90508181036060830152610df98185610d6a565b90508181036080830152610e0d8184610d6a565b90509695505050505050565b600081905092915050565b6000610e2f82610d1b565b610e398185610e19565b9350610e49818560208601610d37565b80840191505092915050565b6000610e618284610e24565b915081905092915050565b7f4e487b7100000000000000000000000000000000000000000000000000000000600052602260045260246000fd5b60006002820490506001821680610eb357607f821691505b602082108103610ec657610ec5610e6c565b5b50919050565b7f43657274696669636174652077697468207468697320494420616c726561647960008201527f2065786973747300000000000000000000000000000000000000000000000000602082015250565b6000610f28602783610d26565b9150610f3382610ecc565b604082019050919050565b60006020820190508181036000830152610f5781610f1b565b9050919050565b60006020820190508181036000830152610f788184610d6a565b905092915050565b7f43657274696669636174652077697468207468697320494420646f6573206e6f60008201527f7420657869737400000000000000000000000000000000000000000000000000602082015250565b6000610fdc602783610d26565b9150610fe782610f80565b604082019050919050565b6000602082019050818103600083015261100b81610fcf565b905091905056fea264697066735822122048f3e59efcd4927069be6f5f17a35b1d54d1cd719c2442c9c37cd856725549a264736f6c634300080d0033",
  "immutableReferences": {},
  "source": "// SPDX-License-Identifier: MIT\r\npragma solidity ^0.8.13;\r\n\r\ncontract Certification {\r\n    struct Certificate {\r\n        string uid;\r\n        string candidate_name;\r\n        string course_name;\r\n        string org_name;\r\n        string ipfs_hash;\r\n    }\r\n\r\n    mapping(string => Certificate) public certificates;\r\n    event certificateGenerated(string certificate_id);\r\n\r\n    function generateCertificate(\r\n        string memory _certificate_id,\r\n        string memory _uid,\r\n        string memory _candidate_name,\r\n        string memory _course_name,\r\n        string memory _org_name,\r\n        string memory _ipfs_hash\r\n    ) public {\r\n        // Check if certificate with the given ID already exists\r\n        require(\r\n            bytes(certificates[_certificate_id].ipfs_hash).length == 0,\r\n            \"Certificate with this ID already exists\"\r\n        );\r\n\r\n        // Create the certificate\r\n        Certificate memory cert = Certificate({\r\n            uid: _uid,\r\n            candidate_name: _candidate_name,\r\n            course_name: _course_name,\r\n            org_name: _org_name,\r\n            ipfs_hash: _ipfs_hash\r\n        });\r\n\r\n        // Store the certificate in the mapping\r\n        certificates[_certificate_id] = cert;\r\n\r\n        // Emit an event\r\n        emit certificateGenerated(_certificate_id);\r\n    }\r\n\r\n    function getCertificate(\r\n        string memory _certificate_id\r\n    )\r\n        public\r\n        view\r\n        returns (\r\n            string memory _uid,\r\n            string memory _candidate_name,\r\n            string memory _course_name,\r\n            string memory _org_name,\r\n            string memory _ipfs_hash\r\n        )\r\n    {\r\n        Certificate memory cert = certificates[_certificate_id];\r\n\r\n        // Check if the certificate with the given ID exists\r\n        require(\r\n            bytes(certificates[_certificate_id].ipfs_hash).length != 0,\r\n            \"Certificate with this ID does not exist\"\r\n        );\r\n\r\n        // Return the values from the certificate\r\n        return (\r\n            cert.uid,\r\n            cert.candidate_name,\r\n            cert.course_name,\r\n            cert.org_name,\r\n            cert.ipfs_hash\r\n        );\r\n    }\r\n\r\n    function isVerified(\r\n        string memory _certificate_id\r\n    ) public view returns (bool) {\r\n        return bytes(certificates[_certificate_id].ipfs_hash).length != 0;\r\n    }\r\n}\r\n",
  "sourcePath": "C:\\S.P.I.T\\Sem 7\\BCT\\Certificate Validation System\\contracts\\Certification.sol",
  "compiler": {
    "name": "solc",
    "version": "0.8.13+commit.abaa5c0e.Emscripten.clang"
  },
  "schemaVersion": "3.4.16",
  "updatedAt": "2023-12-01T05:38:06.046Z",
  "networkType": "ethereum",
  "devdoc": {
    "kind": "dev",
    "methods": {},
    "version": 1
  },
  "userdoc": {
    "kind": "user",
    "methods": {},
    "version": 1
  }
}